:100000000C94B4000C9438100C9438100C943810E4
:100010000C9438100C9438100C9438100C94381040
:100020000C9438100C9438100C9497070C943810DA
:100030000C9438100C9438100C9438100C94381020
:100040000C9438100C9438100C9438100C94381010
:100050000C9438100C9438100C9438100C94381000
:100060000C9438100C9438100100011480000040EA
:100070007A10F35A00A0724E18090010A5D4E800B7
:1000800000E87648170000E40B54020000CA9A3BCF
:10009000000000E1F5050000809698000000404255
:1000A0000F000000A08601000000102700000000E3
:1000B000E803000000006400000000000A000000E7
:1000C00000000100000000002C76D888DC674F0893
:1000D00023DFC1DFAE59E1B1B796E5E3E453C63A99
:1000E000E651997696E8E6C28426EB898C9B62ED10
:1000F000407C6FFCEFBC9C9F40F2BAA56FA5F490CA
:10010000055A2AF75C936B6CF9676DC11BFCE0E440
:100110000D47FEF520E6B500D0ED902E0300943596
:1001200077050080841E080000204E0A000000C8E9
:100130000C333333330F986E12831141EF8D21143A
:10014000893BE65516CFFEE6DB18D1844B381BF70A
:100150007C1D901DA4BBE424203284725E228100A9
:10016000C9F124ECA1E53D2711241FBECFEFD8E053
:10017000DEBFCDBFE8E6F0E040E017C0B591A59145
:1001800035912591059107FD0CC095918591EF0161
:10019000F92FE82F05900D92A217B307D9F7FE01AA
:1001A00004C01D92A217B307E1F7ED36F40731F74B
:0C01B0000E94850B0C94DC00F894FFCF3B
:1001BC000D556C747261736F6E696320446973744E
:1001CC00616E636520436F6E74726F6C6C65722028
:1001DC002D20312E300D0A00455252360D0045525D
:1001EC00523620636F6D6D616E64206C696E652094
:1001FC00627566666572206F766572666C6F770DD8
:10020C000A004F4B0D000A00455252310D00455269
:10021C0052312062616420636F6D6D616E64207673
:10022C006572620D0A00455252320D00455252322F
:10023C0020706172616D65746572206D697373698C
:10024C006E670D0A00455252330D00455252332051
:10025C0062616420706172616D6574657220766193
:10026C006C75650D0A00455252340D0045525234DE
:10027C0020636F6D6D616E64206E6F74206C6567AA
:10028C00616C20696E2063757272656E7420737474
:10029C006174650D0A00455252350D0045525235B8
:1002AC00205374617465206D656D6F72792066756D
:1002BC006C6C0D0A006563686F00646973740020D0
:1002CC000025342E3266000D00082008000D0A00AF
:0A02DC00C10200BE0DC60200590A5F
:0802E600696E66006E616E0096
:1002EE00A4E1B0E0EDE7F1E00C94FD0E6C011A0113
:1002FE00462E5901FC0110861782848181FF62C34C
:10030E00CE0101969D878C87A0E88A8B9B8BAC8B48
:10031E00F101849147FC8081882309F44FC3442D59
:10032E0091012F5F3F4F4F4F853219F01901442E27
:10033E000AC0F901849147FD808192E0290E311C9B
:10034E00411C853249F4B60190E00E94390EBF86F9
:10035E00AE86AE84BF84DCCF10E0F12C00E000321C
:10036E00A0F48B3269F030F4803259F0833269F4A4
:10037E0000612CC08D3239F0803339F4016026C013
:10038E000260046023C0086021C007FD29C090ED03
:10039E00980F9A3078F406FF06C0AAE01A9F900DC7
:1003AE001124192F13C0EAE0FE9E900D1124F92E90
:1003BE0000620CC08E3221F406FD00C3006406C03C
:1003CE008C3611F4006802C0883651F4F101849124
:1003DE0047FC8081FFEF2F1A3F0A4F0A8111BFCFD2
:1003EE009BEB980F933018F40061805E06C09BE97A
:1003FE00980F933008F066C10F7E06FF16E00F735C
:10040E00702E853621F4202F2064722E08C0863679
:10041E0021F4802F8068782E02C01111115077FEC2
:10042E0007C01C3350F4EE24E394E10E27E00BC01A
:10043E00183038F027E017E005C027E06CE3E62E11
:10044E0002C0212FE12CF5013496FF87EE87F501CE
:10045E0060817181828193810E2DAE014F5F5F4F5E
:10046E000E9481095C01598050FE02C053FE06C0F5
:10047E0071FC06C072FE06C000E205C00DE203C0AC
:10048E000BE201C000E0852D8C7019F0011173C2D2
:10049E00BEC277FE0FC0EA0C54FE04C08A818133BF
:1004AE0009F4EA941E1474F528E02E1578F538E058
:1004BE00E32E2CC076FC2AC0812F90E08A159B0576
:1004CE009CF08CEFA8168FEFB80674F0972D9068FD
:1004DE00792E0AC0E2E0F0E0EC0FFD1FE10FF11DF6
:1004EE008081803319F411501111F4CF77FE0EC0B4
:1004FE00EE24E394E10E812F90E0A816B9062CF4B9
:10050E001A1904C0EE24E39401C010E077FE06C071
:10051E001A141B0434F4C501019605C085E090E061
:10052E0002C081E090E001110196112331F0212FDC
:10053E0030E02F5F3F4F820F931F2F2D30E0821739
:10054E00930714F4F81A01C0F12C872D897049F421
:10055E00FF2039F0B60180E290E00E94390EFA9445
:10056E00F7CF002329F0B601802F90E00E94390EBC
:10057E0073FC09C0FF2039F0B60180E390E00E94C1
:10058E00390EFA94F7CF77FE49C03501B7FE02C097
:10059E00612C712CC5018619970988248394912C9E
:1005AE008C0E9D1E880E991EF501EE19F109F98B20
:1005BE00E88B012F10E0119501951109FFEF6F16D1
:1005CE007F0629F4B6018EE290E00E94390EA61441
:1005DE00B70444F088899989861597051CF4F401AF
:1005EE00818101C080E3F1E06F1A71082FEF821A4A
:1005FE00920A601671062CF0B60190E00E94390E38
:10060E00DDCFA614B70439F49A81963318F49533D6
:10061E0011F454FE81E3B60190E051C08A8181331A
:10062E0019F0952D9F7E592EB60190E00E94390E3D
:10063E00111105C074FC1CC085E690E01BC0B6010C
:10064E008EE290E00E94390E02E0010F82E011E08E
:10065E00180FE1E0F0E0EC0FFD1FE80FF11D8081B7
:10066E00B60190E00E94390E812F1013F0CFE2CF29
:10067E0085E490E0B6010E94390EB7FC05C0A114C6
:10068E00B10439F454FE05C0B194A194B1088DE2C1
:10069E0001C08BE2B60190E00E94390E80E3EAE0E1
:1006AE00AE16B1042CF08F5FAAE0AA1AB108F7CFEC
:1006BE00B60190E00E94390EB601C501C0960E94A7
:1006CE00390E72C1833631F0833791F0833509F0DC
:1006DE005DC024C0C50102969F878E87F50180817B
:1006EE0089836A887B888C88AA24A394B12C14C031
:1006FE00C50103969F878E87F50160807180828089
:10070E0006FF03C0412F50E002C04FEF5FEF882D70
:10071E00B3010E944F0F5C010F7715C0C501039600
:10072E009F878E87F50160807180828006FF03C0EF
:10073E00412F50E002C04FEF5FEF882DB3010E94B2
:10074E004F0F5C01006803FD1DC08F2D90E0A816B1
:10075E00B906C0F4B60180E290E00E94390EFA9418
:10076E00F4CFF301849187FC8081FFEF6F1A7F0A2B
:10077E008F0AB60190E00E94390EF110FA9421E032
:10078E00A21AB108A114B10461F70EC1843611F09A
:10079E00893679F5C50107FF09C004969F878E87B4
:1007AE00F50160817181828193810AC002969F87D3
:1007BE008E87F50160817181072E000C880B990BD5
:1007CE000F76E02E97FF0AC09095809570956195F3
:1007DE007F4F8F4F9F4FF02FF068EF2E2AE030E0C3
:1007EE00AE014F5F5F4F0E94D40CA82E2C85A21A2B
:1007FE004BC0853729F40F7EE02E2AE030E025C06D
:10080E00902F997FE92E8F36C1F018F4883579F044
:10081E00D5C0803719F0883721F0D0C0A92FA0613C
:10082E00EA2EE4FE0DC0EE2DE460EE2E09C004FFAC
:10083E000AC0F92FF660EF2E06C028E030E005C0A2
:10084E0020E130E002C020E132E0C501E7FE09C040
:10085E0004969F878E87F5016081718182819381D5
:10086E0008C002969F878E87F5016081718180E0B6
:10087E0090E0AE014F5F5F4F0E94D40CA82EFC8516
:10088E00AF1A2E2D2F77E22EE6FE0BC00E2D0E7F09
:10089E00A11650F4E4FE0AC0E2FC08C00E2D0E7E36
:1008AE0005C0BA2C0E2D03C0BA2C01C0B12E04FF08
:1008BE000DC0FE01EA0DF11D8081803311F4097E19
:1008CE0009C002FF06C0B394B39404C0802F86788B
:1008DE0009F0B39403FD11C000FF06C0BF1488F4E5
:1008EE00FA0C1F2D1B190EC0BF1460F4B60180E266
:1008FE0090E00E94390EB394F7CFBF1418F4FB1892
:10090E0002C01A2DF12C04FF10C0B60180E390E056
:10091E000E94390E02FF17C001FD03C088E790E068
:10092E0002C088E590E0B6010CC0802F867859F0A1
:10093E0001FF02C08BE201C080E207FD8DE2B6012D
:10094E0090E00E94390EA11638F4B60180E390E0D3
:10095E000E94390E1150F7CFAA94E1E0F0E0EC0FAF
:10096E00FD1FEA0DF11D8081B60190E00E94390E47
:10097E00A110F2CF19C0F4E0FF1580F584E0F81A4B
:10098E0073FE23C001112BC053FE2FC05AEE852ECD
:10099E0052E0952E50E0A52E072D0071F4018491A2
:1009AE00A7FC8081811128C0FF2009F4D2CCB601AA
:1009BE0080E290E00E94390EFA94F6CFF60187811C
:1009CE0090852CC08FEF9FEF29C0B60180E290E09A
:1009DE000E94390EFA94F110F8CFD4CFF12CB60153
:1009EE00802F90E00E94390ECFCF46EE842E42E04B
:1009FE00942E40E0A42ED0CF01118052B60190E08B
:100A0E000E94390EFFEF8F1A9F0AAF0AC7CF23E05D
:100A1E002F1510F483E0B3CFF12CB6CF6496E2E13C
:040A2E000C94340FE1
:100A32002F923F924F925F926F927F928F92AF92DC
:100A4200BF92CF92DF92EF920F931F93CF93DF93D8
:100A520000D000D000D0CDB7DEB73B01882E5A01BE
:100A620019014115510521F0FA01608371838283D6
:100A72002114310429F0C1010297839708F01AC1A9
:100A8200E82C6301FFEFCF1ADF0AEF0AF30114919A
:100A920087FC1081812F90E00E94E60F4C2D3D2DA6
:100AA2002E2D892B19F036018E2CEACF1D3269F4D6
:100AB200E82C630152E0C50ED11CE11CE42FF32F98
:100AC200149127FD108101E00EC01B3259F4E82C6D
:100AD200630182E0C80ED11CE11CE42FF32F1491B4
:100AE20027FD108100E02114310409F190E129165B
:100AF200310429F43FC010E32114310421F1F8E05C
:100B02002F16310401F154F432E02316310421F599
:100B1200412C512C612C50E4752E4BC04AE0241616
:100B2200310439F050E125163104B1F43DC01033DF
:100B320019F13AE0232E312C4CEC442E542C642C27
:100B42004CE0742E36C098E0292E312C412C512CC9
:100B5200612C20E1722E2DC060E070E080E090E810
:100B62009101032C000C440B550B0E94BA0E290173
:100B72003A011FC01033C1F4F6018491E7FC808171
:100B82008F7D883509F0B7CFAE2DC6010196A11D24
:100B9200FC011491A7FD1081E2E0CE0ED11CE11CF4
:100BA200026060E1262E312C412C512C612C88E010
:100BB200782EA0E060E070E0CB019101032C000CE4
:100BC200440B550B29833A834B835C83E0EDE10FA1
:100BD200EA3060F02FEB210F2A3110F4E9EC05C066
:100BE2002FE9210F2A3150F5E9EAE10F2E2F30E0EB
:100BF200221533051CF5A7FD18C0461657066806D0
:100C0200790680F029813A814B815C810E94A30F91
:100C12006E0F711D811D911D61307105810530E8D6
:100C2200930710F0AFEF01C0A1E0F6011491E7FCC9
:100C320010814FEFC41AD40AE40AC8CF202F2170C2
:100C4200A114B104B1F0AA2349F051E0C51AD108A8
:100C5200E108F501C082D182E2820BC001FF1DC012
:100C6200F2E0CF1AD108E108F501C082D182E28216
:100C720014C0A7FF12C0222329F060E070E080E0D8
:100C820090E804C06FEF7FEF8FEF9FE722E230E042
:100C920030930C0120930B0109C0222381F090951F
:100CA2008095709561957F4F8F4F9F4F462F372FBD
:100CB200282F12C040E030E020E090E00DC097FF06
:100CC200F5CF82E290E090930C0180930B016FEFDD
:100CD2007FEF8FEF9FE7EACF642F732F822F269645
:100CE2000FB6F894DEBF0FBECDBFDF91CF911F913B
:100CF2000F91EF90DF90CF90BF90AF908F907F9049
:0C0D02006F905F904F903F902F900895ED
:100D0E00CF93DF93CDB7DEB7C454D1090FB6F894A5
:100D1E00DEBF0FBECDBF19821A821B821C8221C07C
:100D2E0029813A814B815C8189819A81AB81BC8119
:100D3E00BC01CD010E94A30FDC01CB0180930D01FC
:100D4E0090930E01A0930F01B093100189819A81A7
:100D5E00AB81BC810196A11DB11D89839A83AB83A2
:100D6E00BC8389819A81AB81BC8180319742A10578
:100D7E00B105B4F26CEB71E080E00E947D0DCE0106
:100D8E00079664E170E00E94050B9E838D838D8132
:100D9E009E81892B81F080911301882331F464EEBA
:100DAE0071E080E00E947D0DBAC06AEE71E080E0D5
:100DBE000E947D0DB4C0CE010796CC01A0E8AA2FEB
:100DCE00FC019A2F849197FD8081882381F46EE037
:100DDE0072E080E00E947D0D80911301882309F45A
:100DEE0099C062E172E080E00E947D0D93C09E0189
:100DFE00255E3F4FCE010796B9010E94A0089E8343
:100E0E008D838D819E81892B81F0809113018823A2
:100E1E0031F464E172E080E00E947D0D80C06AE1F1
:100E2E0072E080E00E947D0D7AC0CE018D5B9F4FF7
:100E3E00FC0120813181CE014B96AC014C5E5F4F9F
:100E4E00CE014B96BA01F90109959E838D838D8152
:100E5E009E81019681F480911301882331F462E31F
:100E6E0072E080E00E947D0D5AC068E372E080E07F
:100E7E000E947D0D54C08D819E81029681F48091D9
:100E8E001301882331F461E572E080E00E947D0D4C
:100E9E0046C067E572E080E00E947D0D40C08D8106
:100EAE009E81039681F480911301882331F462E7C9
:100EBE0072E080E00E947D0D32C068E772E080E053
:100ECE000E947D0D2CC08D819E81049681F48091AF
:100EDE001301882331F462EA72E080E00E947D0DF6
:100EEE001EC068EA72E080E00E947D0D18C08D8100
:100EFE009E81059689F06EE072E080E00E947D0D85
:100F0E0080911301882351F062E172E080E00E942B
:100F1E007D0D04C0000033CF000031CF00002FCF75
:100F2E001F920F9200905F000F921124EF92FF928A
:100F3E000F931F932F933F934F935F938F939F9393
:100F4E00AF93BF93EF93FF93CF93DF93CDB7DEB7FE
:100F5E002897DEBFCDBF81E890E0FC018081882F0D
:100F6E0090E080749927892B31F186E890E0FC019E
:100F7E008081882F90E0909307018093060187E887
:100F8E0090E0FC018081882F90E0382F22278091FD
:100F9E00060190910701820F931F90930701809392
:100FAE00060181E890E021E830E0F90120812F7BF5
:100FBE00FC012083A1C086E890E0FC018081882F8F
:100FCE0090E098878F8387E890E0FC018081882FDE
:100FDE0090E0982F88272F813885820F931F98874E
:100FEE008F8381E890E021E830E0F90120812064D0
:100FFE00FC0120838F8198859C0140E050E0809118
:10100E00060190910701CC01A0E0B0E079018A01C0
:10101E00E81AF90A0A0B1B0BD801C70189839A83B8
:10102E00AB83BC8389819A81AB81BC81BB234CF499
:10103E0089819A81AB81BC81119689839A83AB8316
:10104E00BC83209102013091030140910401509123
:10105E00050189819A81AB81BC81820F931FA41FE8
:10106E00B51F8093020190930301A0930401B093E6
:10107E00050180910A018F5F80930A0180910A0118
:10108E008031D0F18091020190910301A091040171
:10109E00B0910501689413F8B595A7959795879526
:1010AE001694D1F7909309018093080110920201D2
:1010BE0010920301109204011092050110920A0180
:1010CE0080910801909109018115944038F4809126
:1010DE000801909109019E838D8304C08FEF93E0E8
:1010EE009E838D8383EB90E02D813E8136952795EF
:1010FE0036952795FC012083000028960FB6F894AC
:10110E00DEBF0FBECDBFDF91CF91FF91EF91BF91AB
:10111E00AF919F918F915F914F913F912F911F9121
:10112E000F91FF90EF900F9000925F000F901F9025
:02113E00189502
:10114000CF93DF93CDB7DEB7E2970FB6F894DEBF4B
:101150000FBECDBF98AB8FA77AAB69AB8FA598A90F
:10116000CC01A0E8AA2F9C014A2FCE014B96642FF8
:10117000A9010E94C20F89A99AA9FC01108289A91C
:101180009AA9FC01148A8FA598A94BEC52E060E063
:101190000E9421109C838B838B819C81892B19F465
:1011A0008FEF9FEFA5C08B819C81CC01A0E8AA2F77
:1011B0009C014A2FCE010796642FA9010E94C20FFD
:1011C0004BEC52E060E080E090E00E9421109C83B4
:1011D0008B838B819C81892B71F08B819C81CC01CD
:1011E000A0E8AA2F9C014A2F89A99AA9642FA901D6
:1011F0000E94C20F04C089A99AA9FC0110824BEC7D
:1012000052E060E080E090E00E9421109C838B839C
:101210008B819C81892B79F08B819C81CC01A0E80A
:10122000AA2F9C014A2F89A99AA94496642FA90143
:101230000E94C20F04C089A99AA9FC01148A82E005
:1012400090E09E838D831A82198248C02CED32E093
:1012500040E069817A81CB01880F991F880F991F1F
:10126000860F971F092E000CAA0B820F931FA41F35
:10127000FC015A2F0E94DC0F9B01482FCE010796DC
:10128000CC01A0E8AA2FBC018A2F0E94DC0E892B7A
:1012900001F52CED32E040E069817A81CB01880FC5
:1012A000991F880F991F860F971F0396092E000C10
:1012B000AA0B820F931FA41FFC015A2F0E94EF0F4D
:1012C0009B0189A99AA9FC0131A720A780E090E0A1
:1012D0000FC089819A8101969A83898329813A81F5
:1012E0008D819E81281739070CF4B0CF8EEF9FEFC8
:1012F000E2960FB6F894DEBF0FBECDBFDF91CF915F
:0213000008954E
:10130200283008F027E03327DA01990F311D87FDD5
:10131200916000966105710539F432602E5F3D934C
:1013220030E32A95E1F708959F3F30F08038710548
:10133200610509F03C5F3C5F3D93913008F08068A5
:10134200911DDF93CF931F930F93FF92EF92192F6B
:10135200987F9695E92F96959695E90FFF27E85382
:10136200FF4F99273327EE24FF24A701E7010590B9
:101372000894079428F4360FE71EF81E491F511DE2
:10138200660F771F881F991F0694A1F7059007948F
:1013920028F4E70EF81E491F561FC11D770F881F3C
:1013A200991F661F0694A1F70590079428F4F80E7A
:1013B200491F561FC71FD11D880F991F661F771F10
:1013C2000694A1F70590079420F4490F561FC71FF2
:1013D200D81F990F661F771F881F0694A9F784915B
:1013E2001095177041F0D695C79557954795F79484
:1013F200E7941A95C1F7EEE6F0E06894159015911E
:1014020035916591959105907FE27395E118F10A06
:10141200430B560BC90BD009C0F7E10CF11E431F59
:10142200561FC91FD01D7EF4703311F48A95E6CF82
:10143200E894015030F0080F0AF40027021708F46C
:10144200202F2395022F7A3328F079E37D932A9572
:10145200E9F710C07D932A9589F6069497956795CA
:10146200379517951794E118F10A430B560BC90BE0
:10147200D00998F023957E9173957A3308F070E342
:101482007C932013B8F77E9170617D9330F0839541
:1014920071E37D9370E32A95E1F71124EF90FF90B9
:1014A2000F911F91CF91DF91992787FD9095089514
:1014B200CF93DF93CDB7DEB7CA54D1090FB6F894F4
:1014C200DEBF0FBECDBF9E01295B3F4FF901918365
:1014D2008083CE01875B9F4FFC01718360838DEB1C
:1014E20097E3A6E8B6E389839A83AB83BC8380E063
:1014F20090EFA2E5B6E48D839E83AF83B887F8941C
:101502008091080190910901CC01A0E0B0E08987A7
:101512009A87AB87BC87789469857A858B859C8509
:101522000E94FC0DDC01CB0129813A814B815C8157
:10153200BC01CD010E942A10DC01CB018D879E8760
:10154200AF87B88B2D813E814F8158856D857E8511
:101552008F8598890E942A10DC01CB0120E030E0BF
:1015620040E050E4BC01CD010E942610DC01CB0119
:10157200898B9A8BAB8BBC8B8C898F938B898F9346
:101582008A898F9389898F938DEC92E0A0E08A2FCC
:101592008F938DEC92E0A0E0892F8F938DEC92E0F7
:1015A200A0E08F93CE014596292F2F938F930E940F
:1015B200750E8DB79EB709960FB6F894DEBF0FBEB3
:1015C200CDBFCE014596CC01A0E8AA2FBC018A2F3F
:1015D2000E947D0D63ED72E080E00E947D0D80919E
:1015E2001301882329F062E172E080E00E947D0D00
:1015F2008BEF9FEFC65BDF4F0FB6F894DEBF0FBED7
:08160200CDBFDF91CF910895E7
:10160A00CF93DF93CDB7DEB727970FB6F894DEBF37
:10161A000FBECDBF9D838C837F836E831A8219820E
:10162A000E94800F8B838B81882F90E00E94F70F96
:10163A008B838B81883019F08B818F37A9F489814C
:10164A009A81181619060CF043C080911301882359
:10165A0029F065ED72E080E00E947D0D89819A8112
:10166A0001979A83898334C08B818A3099F18B815F
:10167A008D3051F480911301882371F169ED72E084
:10168A0080E00E947D0D28C089819A819C012F5F8C
:10169A003F4F3A8329839C018C819D81820F931F3E
:1016AA002B81FC01208380911301882319F08B81FF
:1016BA000E94190F8E819F819C01215031098981D5
:1016CA009A81821793070CF4ABCF8FEF9FEF0FC06D
:1016DA000000A6CF0000A4CF000089819A812C8146
:1016EA003D81820F931FFC01108280E090E02796D3
:1016FA000FB6F894DEBF0FBECDBFDF91CF9108952C
:10170A00CF93DF93CDB7DEB784E690E025E8FC01FE
:10171A00208384E290E028E0FC01208385E290E0C7
:10172A002FEFFC01208387E290E0FC01108288E21F
:10173A0090E020ECFC0120838AE290E020E4FC01A6
:10174A0020838BE290E02FEBFC01208385EC90E074
:10175A00FC01108284EC90E029E1FC01208380ECFA
:10176A0090E0FC01108281EC90E028E1FC012083EA
:10177A0082EC90E02EE0FC01208384E490E020E4F7
:10178A00FC01208385E490E025E0FC01208380E8C9
:10179A0090E0FC01108281E890E023E4FC012083C0
:1017AA0080EB90E023E8FC01208381EB90E021E0CC
:1017BA00FC01208383EB90E020E1FC0120838FE68B
:1017CA0090E020E2FC0120831092070110920601AA
:1017DA001092020110920301109204011092050165
:0C17EA0010920A0178940E948706FDCF3F
:1017F60010C00E94061058F00E94FF0F40F029F416
:101806005F3F29F00C941B1051110C940E100C9490
:1018160032100E94980E68F39923B1F3552391F381
:10182600951B550BBB27AA2762177307840738F049
:101836009F5F5F4F220F331F441FAA1FA9F335D0A6
:101846000E2E3AF0E0E832D091505040E695001C5A
:10185600CAF72BD0FE2F29D0660F771F881FBB1F14
:10186600261737074807AB07B0E809F0BB0B802DF2
:10187600BF01FF2793585F4F3AF09E3F510578F01E
:101886000C941B100C940E105F3FE4F3983ED4F3B7
:10189600869577956795B795F7959F5FC9F7880FF2
:1018A600911D9695879597F90895E1E0660F771F44
:1018B600881FBB1F621773078407BA0720F0621BD5
:0E18C600730B840BBA0BEE1F88F7E0950895A4
:1018D4000FC00E94FF0F38F00E94061020F09523DD
:1018E40011F00C941B100C94321011240C940E1053
:1018F4000E94980E70F3959FC1F3950F50E0551F09
:10190400629FF001729FBB27F00DB11D639FAA2750
:10191400F00DB11DAA1F649F6627B00DA11D661F9F
:10192400829F2227B00DA11D621F739FB00DA11DC0
:10193400621F839FA00D611D221F749F3327A00D7A
:10194400611D231F849F600D211D822F762F6A2F16
:1019540011249F5750409AF0F1F088234AF0EE0F7B
:10196400FF1FBB1F661F771F881F91505040A9F7A8
:101974009E3F510580F00C941B100C940E105F3F99
:10198400E4F3983ED4F3869577956795B795F795E4
:10199400E7959F5FC1F7FE2B880F911D969587955C
:0419A40097F9089512
:1019A800FA01AA27283051F1203181F1E8946F9388
:1019B8006E7F6E5F7F4F8F4F9F4FAF4FB1E03ED02E
:1019C800B4E03CD0670F781F891F9A1FA11D680FCC
:1019D800791F8A1F911DA11D6A0F711D811D911DFF
:1019E800A11D20D009F468943F912AE0269F112474
:1019F8003019305D3193DEF6CF010895462F4770D8
:101A0800405D4193B3E00FD0C9F7F6CF462F4F7032
:101A1800405D4A3318F0495D31FD4052419302D090
:101A2800A9F7EACFB4E0A695979587957795679536
:101A3800BA95C9F700976105710508959B01AC0136
:101A48000A2E06945795479537952795BA95C9F75D
:0C1A5800620F731F841F951FA01D0895CE
:101A6400CF92DF92EF920F931F93CF93DF93E9010D
:101A7400009721F4888199810097A9F1DC011196DE
:101A8400FC013081332349F16A01E62EF6012491E9
:101A9400E7FC2081FFEFCF1ADF0AEF0A222321F0AF
:101AA4003213F4CFCD01EACF7A2F2B2F6A01E62E21
:101AB400F6011491E7FC1081311303C011971C92B5
:101AC40010C0EFEFCE1ADE0AEE0A1111F1CF3D91EC
:101AD4003111EACF70E020E004C070E020E080E043
:101AE40090E078832983DF91CF911F910F91EF903C
:061AF400DF90CF90089581
:101AFA00CF93DF93CDB7DEB727970FB6F894DEBF43
:101B0A000FBECDBF6D837E838F838D819E81AF8112
:101B1A00BC018A2F0E946A0F9C838B831A821982C6
:101B2A0017C089819A81092E000CAA0B2D813E814A
:101B3A004F81820F931FA41FFC019A2F849197FD56
:101B4A0080810E94190F89819A8101969A838983DB
:101B5A0029813A818B819C812817390714F3000067
:101B6A0027960FB6F894DEBF0FBECDBFDF91CF9197
:021B7A000895CC
:101B7C00CF93DF9300D000D000D0CDB7DEB79C83DD
:101B8C008B837E836D838B819C81CC01A0E8AA2FF3
:101B9C00FC019A2F849197FD8081882319F48FEF93
:101BAC009FEF1BC08B819C81CC01A0E8AA2FBC01AC
:101BBC008A2F0E942E109A83898389819A81992376
:101BCC0024F089819A8102971CF08EEF9FEF05C05B
:101BDC0089818093130180E090E026960FB6F894EB
:0C1BEC00DEBF0FBECDBFDF91CF9108958A
:101BF800E89409C097FB3EF490958095709561959F
:101C08007F4F8F4F9F4F9923A9F0F92F96E9BB2754
:101C18009395F695879577956795B795F111F8CFD0
:101C2800FAF4BB0F11F460FF1BC06F5F7F4F8F4F3B
:101C38009F4F16C0882311F096E911C0772321F031
:101C48009EE8872F762F05C0662371F096E8862FC9
:101C580070E060E02AF09A95660F771F881FDAF720
:0A1C6800880F9695879597F9089567
:101C72000F931F93CF93DF93FB01248121FD03C0B8
:101C82008FEF9FEF2CC022FF16C047815085258120
:101C920036814217530744F4A081B1819D012F5F21
:101CA2003F4F318320838C93278130852F5F3F4FB5
:101CB2003087278314C08B01EC01FB010184F2857C
:101CC200E02D0995892BE1F6D80117968D919C910B
:101CD2001897019618969C938E931797CE01DF91D1
:081CE200CF911F910F910895AD
:101CEA00AFE0B0E0EBE7FEE00C940B0F0E891F8922
:101CFA0086E08D831A8309838FEF9FE79F838E8304
:101D0A009E01255E3F4F488D598D6A8DCE01019601
:101D1A000E947701E885F985E00FF11F10822F965E
:061D2A00E4E00C94420FFE
:101D300057FD9058440F551F59F05F3F71F047957C
:101D4000880F97FB991F61F09F3F79F08795089561
:101D5000121613061406551FF2CF4695F1DF08C080
:101D6000161617061806991FF1CF8695710561059D
:041D70000894089536
:101D7400A1E21A2EAA1BBB1BFD010DC0AA1FBB1F8B
:101D8400EE1FFF1FA217B307E407F50720F0A21BFD
:101D9400B30BE40BF50B661F771F881F991F1A946A
:101DA40069F760957095809590959B01AC01BD0194
:041DB400CF010895BE
:101DB800CF92DF92EF926B01E82EF6018491E7FC57
:101DC8008081F901549147FD508185130BC0882308
:101DD80041F08FEFC81AD80AE80A2F5F3F4F4F4FDC
:101DE800ECCF582F90E0851B9109EF90DF90CF90B2
:021DF80008954C
:101DFA002F923F924F925F926F927F928F929F9211
:101E0A00AF92BF92CF92DF92EF92FF920F931F93FE
:101E1A00CF93DF93CDB7DEB7CA1BDB0B0FB6F894AF
:081E2A00DEBF0FBECDBF09941D
:101E3200CF93DF931F92CDB7DEB78983000080EC8A
:101E420090E0FC018081882F90E080729927892B95
:101E5200B1F386EC90E02981FC01208300000F9011
:061E6200DF91CF9108950D
:101E68002A88398848885F846E847D848C849B8422
:101E7800AA84B984C884DF80EE80FD800C811B8130
:101E8800AA81B981CE0FD11D0FB6F894DEBF0FBE5F
:061E9800CDBFED0108952D
:101E9E00CF92DF92EF926B01E82EA82FCB01411566
:101EAE00510531F48C199D09EF90DF90CF90089574
:101EBE00FC012491A7FD20812223A1F30196A11DEF
:061ECE0041505109ECCF68
:101ED400CF92DF92EF926B01E82EA82FCB01FC0189
:101EE4002491A7FD2081222319F00196A11DF7CF8B
:0C1EF4008C199D09EF90DF90CF900895AD
:101F0000CF93DF93CDB7DEB7000080EC90E0FC010B
:101F100080818823D4F786EC90E0FC018081DF91FA
:041F2000CF910895C0
:101F2400092E0394000C11F4882352F0BB0F40F4E3
:101F3400BF2B11F460FF04C06F5F7F4F8F4F9F4F23
:021F44000895FE
:101F4600DB018F939F930E94D10FBF91AF91A29F08
:101F5600800D911DA39F900DB29F900D11240895A1
:101F6600A29FB001B39FC001A39F700D811D1124D4
:0E1F7600911DB29F700D811D1124911D0895C3
:101F84009A01462FDC01F901549147FD50815D937C
:0E1F9400552321F02F5F3F4F4F4FF5CF08959B
:101FA2000E94B30FA59F900DB49F900DA49F800D2A
:061FB200911D11240895A9
:101FB80057FD04C06591759185910895619171915E
:041FC8008191089566
:101FCC0091110C943510803219F089508550C8F756
:021FDC00089566
:101FDE0057FD03C0659175910895619171910895B2
:101FEE009111089581548A5108F4805E855A08959E
:0E1FFE0000240A941616170618060906089500
:0E200C0000240A941216130614060506089501
:0E201A00E894BB2766277727CB0197F9089536
:0E2028002AE030E040E050E00E9419050895E3
:0C20360097F99F6780E870E060E0089573
:0A20420021E131E00E94320D089503
:08204C000E94FB0B0C94920FA3
:082054000E946A0C0C94920F2B
:08205C000E941410CB0108954D
:062064009FEF80EC0895DF
:06206A0099278827089564
:042070000C940000CC
:00000001FF
